:030000000200EA11
:0C00EA00787FE4F6D8FD75811302013127
:1002340075114E75122012000312029BE51215125D
:10024400AE11700215114E70F3750901750A02752D
:100254000B03750C04750D05750E06750F077510E7
:030264000880E629
:10029B005389F0438901758A33758CFED2A9D2AF8D
:0502AB00C28DD28C227F
:03000B0002017679
:10017600C0E0C0F0C083C082C0D075D000C000C04F
:1001860001C002C003C004C005C006C007C28C126D
:10019600000E758CFE758A33D28CD007D006D0053A
:1001A600D004D003D002D001D000D0D0D082D083EA
:0501B600D0F0D0E032A2
:07000300C292C294C29322D5
:1001BB00C294E4FEEEC3940874809480500FED3328
:1001CB009293D292ED25E0FDC2920E80E7AD07E44B
:1001DB00FEEEC3940874809480500FED339293D24B
:0C01EB0092ED25E0FDC2920E80E7D29458
:0101F70022E5
:10026700D3EF9400EE940040147D7C7C00ED1D706C
:0D027700011CED4C70F7EF1F70E61E80E3D8
:010284002257
:1002B000C0F9A4B0999282F88090FFBF01020408AF
:0402C000102040804A
:0A02C40008090B0B0B0B0B0B0B0BC7
:10000E00E508B4080040030200E990001FF8282814
:10001E007302003702004B02005F0200730200877A
:10002E0002009B0200AF0200CCE4FD7FFF1201BB79
:10003E00E5099002B093F5139002BC8076E4FD7F43
:10004E00FF1201BBE50A9002B093F5139002BD803A
:10005E0062E4FD7FFF1201BBE50B9002B093F51336
:10006E009002BE804EE4FD7FFF1201BBE50C9002B4
:10007E00B093F5139002BF803AE4FD7FFF1201BBEF
:10008E00E50D9002B093F5139002C08026E4FD7F3B
:10009E00FF1201BBE50E9002B093F5139002C180E2
:1000AE0012E4FD7FFF1201BBE50F9002B093F51332
:1000BE009002C2E493FDAF131201BB050822E4FDCA
:1000CE007FFF1201BBE5109002B093F5139002C3AF
:0B00DE00E493FDAF131201BBE4F50832
:0100E90022F4
:10028500E4FFEFC3940A74809480500974092FF831
:05029500E4F60F80ED0E
:01029A002241
:1001F800E509C3940A748094804004E4FF8002AF48
:1002080009EF75F00AA4FEC3E50A940A7480948085
:100218004004E4FF8002AF0AEF2EFE0EEE75F00AEE
:0B02280084F509EE75F00A8485F00AE9
:0102330022A8
:1000F600020234E493A3F8E493A34003F68001F2EA
:1001060008DFF48029E493A3F85407240CC8C3330A
:10011600C4540F4420C8834004F456800146F6DFD9
:10012600E4800B01020408102040809002C4E47EA3
:10013600019360BCA3FF543F30E509541FFEE493CE
:10014600A360010ECF54C025E060A840B8E493A395
:10015600FAE493A3F8E493A3C8C582C8CAC583CAC0
:10016600F0A3C8C582C8CAC583CADFE9DEE780BE78
:0102CE00002F
:00000001FF
